:020000040000FA
:1000000080311C28181008007E1480310B1F1A281C
:100010002100911C12282000911C122891314C21A2
:1000200080311A282100111C1A282000111C1A28BE
:100030009131BB217E10090080311E2838308400A8
:1000400021308500B830FE000030FF009131C7211B
:100050008031F001F101F201F301F4014F3084002D
:10006000003085002130FE000030FF009131C721B3
:100070008031A0308400003085005030FE00003018
:10008000FF009131C721803120308400013085008C
:100090004430FE000030FF009131C7218031A03094
:1000A0008400013085002E30FE000030FF009131C9
:1000B000C7217E1020008A31422A2000C3013D085A
:1000C0009331AE23803159087405031976286B35B6
:1000D000A83E860087016B35203E840001308500F4
:1000E000403F80070131413F803D3F316B35A83EA5
:1000F00086008701403FC400413FC5005908740590
:10010000031990286B35A83E860087016B356C3E3D
:1001100084008501403F80070131413F803D3F31F0
:100120006B35203E860001308700403FBC00413FD8
:10013000BD006B08BE00BF01BE35BF0D52303E078B
:10014000840098303F3D8500003FC000013FC10062
:100150004108803AC2003D08803A4202031DB2289D
:100160003C0840020318B628053042292000450803
:10017000803ABC0080303C02031DC028303044026D
:10018000031C442920004508803ABC0080303C0212
:10019000031DCC285F3044020318052920004508C0
:1001A000803ABC0080303C02031DD82856304402FF
:1001B000031C052920006B08B43E86008701010856
:1001C000031DE8286B08B43E860087018101810A7F
:1001D0002100CD01CD0A20006B08513E8600870129
:1001E0008101810A0230BC006B08B83E860087019D
:1001F0003C0881070230BC006B084F3E8600870137
:100200003C088100C301C30A302A20006B08513E1C
:100210008600870102300106031D41296B35A43E8B
:1002200086008701403FBC00413FBD0044083C07B9
:10023000BE0045083D3DBF003F08803AC000803009
:100240004002031D25295F303E020318412920008A
:100250006B35A43E86008701403FBC00413FBD0096
:1002600044083C07BE0045083D3DBF003F08803ABA
:10027000C00080304002031D3F2956303E02031863
:10028000E828033020002D2A20004508803ABC00D1
:1002900080303C02031D4E2930304402031865298A
:1002A00020004508803ABC0080303C02031D5A29DA
:1002B0002B304402031C652920006B08B43E8600E5
:1002C00087010108031D062A002A20004508803AFC
:1002D000BC0080303C02031D6F292B304402031800
:1002E000302A20006B08B43E8600870101080319FC
:1002F000302A6B08513E860087010103031DBA298D
:100300004508803ABC0080303C02031D8929033037
:100310004402031CAB2902302000BC006B08513E94
:10032000860087013C0881000130BC006B08B63EA6
:10033000860087013C0881076B084F3E86008701D5
:100340008101810A6B35A43E860087014408C03FC5
:100350004508C13F022901302000BC006B084F3E18
:10036000860087013C0881076B084F3E86008701A5
:100370000330292A6B08513E8600870102300106AE
:10038000031D41296B35A43E86008701440881077F
:1003900041314508813D7F314508803ABC008030BD
:1003A0003C02031DD52904304402031C1B2A2000F3
:1003B0006B35A43E86008701403FBC00413FBD0035
:1003C0003D08803ABE0080303E02031DE9293030EE
:1003D0003C0203188B2920006B35A43E8600870160
:1003E000403FBC00413FBD003D08803ABE00803028
:1003F0003E02031DFD292B303C02031C8B292000EB
:100400006B08B43E860087018101810A6B08513E6A
:10041000860087018101810A0130BC006B08B83E6B
:10042000860087013C0881076B084F3E86008701E4
:100430008101810A022901302000BC006B084F3E77
:10044000860087013C0881076B084F3E86008701C4
:100450000A300102031841290230BC003C08C300E5
:1004600020006B08B83E8600870108300106031D96
:10047000422A6B08B63E860087010103031D422A0B
:100480000430622A6B08B83E8600870109300106F5
:10049000031D512A6B08B63E86008701010303192C
:1004A000402A6B08B83E860087010A300102031813
:1004B000612A6B08B63E8600870102300102031CE8
:1004C000652A0330BC003C08C3000530430603190D
:1004D000EE2B4308031D7D2A5D30A0000030A100F3
:1004E0006B08913186218031590874050319EE2B70
:1004F0006B08913172218031EE2B03304306031DCE
:100500009C2A6B088E311A2680315D30A0000030A5
:10051000A1006B08913186218031590874050319B7
:10052000962A6B08913172218031EE2B7408BC0041
:100530003C082100CF04EE2B21004F087405031D59
:100540005A2B4D03031D0A2B01302000BC006B0801
:10055000BE3E860087013C0881076B356C3E8600F5
:100560008701403FBC00413FBD003C08D33E210015
:10057000EE00FF3020003D3D2100EF00EE30200076
:10058000A6000030A7006B08BC00BD01BC35BD0D46
:1005900056303C07840098303D3D8500003FA80060
:1005A000013FA90088315E2080316B35243E8600F2
:1005B00001308700403FBC00413FBD003C08860041
:1005C0003D08870021006E08C03F6F08C13F200032
:1005D0006B35243E860001308700023081074131AF
:1005E0000318810A6B08513E860087010108BC0090
:1005F0006B08BC3E86008701010886000130870039
:100600003C0881000130BC006B08BC3E86008701BD
:100610003C08810701302000BC006B08BE3E86000C
:1006200087013C0881076B356C3E860087016B357E
:10063000243E840001308500003FBC00013FBD0026
:100640003C0884003D088500403F803F413F813F9A
:100650006B35243E8600013087000230810741312E
:100660000318810A6B08513E860087010108BC000F
:100670006B08BC3E860087010108860001308700B8
:100680003C08810002304306031D522B0A30BC0097
:100690006B08BC3E86008701010886000130870098
:1006A0003C0881070130BC006B08BC3E8600870116
:1006B0003C088107043020004306031DAF2B6B0864
:1006C0008F315A2780316B088E31BA2680316B0802
:1006D00087317D2780316B0894314F248031200091
:1006E0005908740503199E2B6B08C23E86008701CA
:1006F00005300106031D8B2B6B08031D852B303045
:100700002200E0000030E100932B30302200E200B4
:100710000130E300932B6B35603E8600013087008B
:100720000030C03FC13F6D302000A0001630A10056
:100730006B0891317C218031A001AA2B58087405E7
:100740000319EA2B7409BC003C08D8050430BC002E
:100750003C08A0006B088D3186258031EA2B5D3086
:10076000A0000030A1006B0891318621803159082A
:1007700074050319C02B6B08913172218031EE2B67
:10078000580874050319EE2B21004F08740503194E
:10079000EE2B20006B08513E860087010103031DEC
:1007A000EE2B4303031DEE2B6B088C31F8248031B4
:1007B0006B088E311A2680310430BC003C08A00042
:1007C0006B088D318625803174092000BC003C08FF
:1007D0002100CF0520006B089431862420006B3562
:1007E000A83E860087010030C03FC13F2100CD01F7
:1007F000080021005503031D312CD5010C08F7001A
:1008000077082000E40021000D08F7007708200099
:10081000E30021000E08F70077082000E200FD3019
:10082000F7007708E405C130F7007708E2056108B2
:100830005E04F7007708E40460085D04F7007708B9
:10084000E3045F085C04F7007708E2046408210011
:100850008C002000630821008D0020006208210028
:100860008E005603031D732CD60122000C08F700DE
:1008700077082000EA0022000D08F7007708200022
:10088000E90022000E08F70077082000E800CD30CC
:10089000F7007708EA055F30F7007708E905F130DF
:1008A000F7007708E805670821006B04F700770870
:1008B0002000EA04660821006A04F7007708200097
:1008C000E904650821006904F70077082000E804BE
:1008D0006A0822008C002000690822008D00200098
:1008E000680822008E002100521C7E2CFE30F7008A
:1008F0007708D20500309631022683312100D21CC0
:10090000892CFD30F7007708D20501309631022698
:1009100083312100541C942CFE30F7007708D40555
:1009200000309631512683312100D41C9F2CFD309C
:10093000F7007708D4050130963151268331210024
:10094000531CAA2CFE30F7007708D30500309431F1
:10095000732483312100D31CB52CFD30F7007708B8
:10096000D305013094317324833120005A1C4F2D5C
:100970000130F70077082100E80768086406031DC6
:100980004F2D0130F7007708F3071A307302031C6C
:10099000312D20005718F72C58085904F700210072
:1009A0004E087704F800781CF72C0130A8070030B7
:1009B000A93D40080319F02C56308400983085007A
:1009C000003FF700013FF8002908803AF900780855
:1009D000803A7902031DEE2C77082802031CF72CBD
:1009E000FE30F70077082000DA05210050142000BF
:1009F000550856040319192DFF30D507FF30D63D91
:100A00005608803AF70080307702031D092D013027
:100A100055020318192DFE30F70077082000D7057E
:100A2000FE30F7007708DA05210059142000D501BF
:100A3000D6012100581C272DFE30F7007708D80575
:100A4000FE30F70077082000DA0521005914660807
:100A5000F7007708E8006208F7007708F300C001A4
:100A60003A2D4A084B0403193A2D4B088A004A08CC
:100A70000A0085311930730203184A2D7308353E78
:100A8000840098300318013E85000008F7007708BD
:100A900021004E2D21006D08F7007708E4002000AA
:100AA000DA1CE92D0130F70077082100E707670815
:100AB0006306031DE92D0130F7007708F2071A30AD
:100AC0007202031CCB2D2000D718912D5808590411
:100AD000F70021004E087704F800F81C912D013032
:100AE000AA070030AB3D410803198A2D5830840015
:100AF00098308500003FF700013FF8002B08803A4E
:100B0000F9007808803A7902031D882D77082A02B7
:100B1000031C912DFD30F70077082000DA05210035
:100B2000D0142000530854040319B32DFF30D30709
:100B3000FF30D43D5408803AF70080307702031D1F
:100B4000A32D013053020318B32DFD30F7007708B1
:100B50002000D705FD30F7007708DA052100D91409
:100B60002000D301D4012100D81CC12DFD30F70095
:100B70007708D805FD30F70077082000DA05210056
:100B8000D9146508F7007708E7006108F7007708CF
:100B9000F200C101D42D480849040319D42D490895
:100BA0008A0048080A008531193072020318E42DC2
:100BB00072081C3E840098300318013E850000082E
:100BC000F70077082100E82D21006C08F70077086E
:100BD000E30020005A08031D080091313B21080062
:100BE000BA000130B0003A0AF62DB035890BF52D68
:100BF0003008B1003108B7003A08031D1A2E5B080F
:100C0000370503190D2E3A356C3E860087015508CD
:100C1000810241315608813B162E3A356C3E8600E2
:100C200087015508810741315608813D7F31D50143
:100C3000D601342E5B0837050319282E3A356C3E51
:100C4000860087015308810241315408813B312ECF
:100C50003A356C3E860087015308810741315408BC
:100C6000813D7F31D301D4013A356C3EA60000307E
:100C7000A7003A08B000B101B035B10D56303007C9
:100C800084009830313D8500003FA800013FA90055
:100C900088315E208531A001A00A3A089531B72538
:100CA00085313A356C3E860087013A35603E8400D6
:100CB00001308500403F0002B8000131413F003B58
:100CC000B900B91F772E3A08B000B101B035B10DA7
:100CD0005630300784009830313D8500003FB20027
:100CE000013FB3003208B8073308B93D612E390817
:100CF000B1003808B000B035B10D3A08B200B30108
:100D0000B235B30D5630320784009830333D85003C
:100D1000003FB400013FB5003508803AB600310805
:100D2000803A3602031D962E300834020318B32E83
:100D30002000A0013A089531B72585313A08B00066
:100D4000B101B035B10D5630300784009830313DD7
:100D50008500003FB200013FB30038083202B800FE
:100D60003908333BB90020003A35AC3E8600870194
:100D70003808C03F3908C13F3A0889319E21080030
:100D80002000C801C80A3D08031DCA2E5608C70026
:100D90005508CD2E5408C7005308C6003D356C3E9B
:100DA000860087014608810241314708813B7F3137
:100DB0003D356C3EA6000030A7003D08BE00BF01D7
:100DC000BE35BF0D56303E07840098303F3D85004C
:100DD000003FA800013FA90088315E2086313D35E3
:100DE0006C3E86008701403FC900413FCA00CB01ED
:100DF0003A2F1730BE003E08A0003D0893319D23D6
:100E00008631A03E4B07BF003F08860001308700B7
:100E10000103031D362F0130CC070030CD3D3D08C6
:100E2000BE00BF01BE35BF0D56303E07840098306E
:100E30003F3D8500003FC000013FC1004D08803AA2
:100E4000C2004108803A4202031D282F40084C028C
:100E5000031C2D2F2000CC01CD0120004D084A0697
:100E6000031D342F4C0849060319712F0130BE00B1
:100E70003E08CB073D08BA3E8600870101084B02B9
:100E80000318722F4B08BE00BF01BE35BF0D3D08D1
:100E9000C000C1014008A0004108A1002E30A200FE
:100EA0000030A3009631362686313830C20021301A
:100EB000C30020084207C4002108433DC5003E0886
:100EC000440786003F08453D8700403FCC00413F36
:100ED000CD004D084A06031D6F2F4C084906031D1F
:100EE000F92EC80148080319792F3D0888310920D7
:100EF00008003D08943186240800B600B701370881
:100F0000A600A701A635A70D3608A800A901280844
:100F1000A0002908A1002E30A2000030A3009631C5
:100F2000362687319430AA002130AB0020082A07EA
:100F3000AC0021082B3DAD0026082C0786002708B1
:100F40002D3D87003708AE00AF01AE35AF0D360836
:100F5000B000B1013008A0003108A1002E30A2007D
:100F60000030A3009631362687313830B200213068
:100F7000B30020083207B4002108333DB5002E0825
:100F8000340784002F08353D8500403F803F413FB6
:100F9000813F1730A6002608A000360893319D2314
:100FA00087312E3E3707A7002708860001308700CB
:100FB0000108A8001730A9002908A00036089331BD
:100FC0009D238731A03E3707AA002A0886000130FA
:100FD0008700280881000130A6002608B7071730CF
:100FE0003702031C7F2F3608BE3E860087010108AA
:100FF000A6003608BA3E8600870126088100080050
:10100000080021082200E500200020082200E4005A
:101010000800B2000130B000320A0F28B035890B49
:101020000E283008B1003108F4007408B000300810
:10103000D8047408B00030082100CF0420003235F5
:10104000203E8600013087000030C03FC13F32089B
:101050008E311A2688315D30A0000030A1003208A0
:1010600091318621080020003D0894313D248831CB
:1010700005302000BE003E08A0003D088D318625C9
:1010800088312000A001A00A3D089531B72588319C
:101090000030B000B1003D08923155228831200067
:1010A000A001A00A8830BE003E08A1003D0888319A
:1010B000D32088313D089631C2260800280829042B
:1010C000031908002608860027088700403FAA0069
:1010D000413FAB002B08803AAC002908803A2C0233
:1010E000031D742828082A02031C8C2820002608C7
:1010F0008600270887002808810241312908813BA2
:101100007F31622826088600270887002808810783
:1011100041312908813D7F312000260886002708BB
:101120008700403FAA00413FAB00AB1F0800822868
:101130005E08031DAD282000E101E0010230F5004A
:101140007508DF00DE01DD010830F5007508DC0000
:101150009130220092009330BE280230F5007508CD
:101160002000E100E001DF01DE01DD010430F500D7
:101170007508DC0090302200920092309400D43048
:101180002100C4001430C500DC01DC0A0130F50088
:101190007508DE06600803390319D128DB01DB0A74
:1011A0000800DB010800A3002008031DE128210836
:1011B000313EA2002308C63E860087012208810036
:1011C00008002003031D07292308031D03294D30B0
:1011D0008400983085000008A2002108220203182C
:1011E000FA282108A2002308C63E860087012208AB
:1011F000810008005B30A2002308C63E86008701FC
:10120000220881000800343084009830EA284F30EA
:10121000A2002308C63E860087012208810008003C
:1012200001302000BE003D0A1629BE35890B152964
:101230003E08BF003F08C00057084005031D322983
:101240000230BE003E08A0003D088D318625893160
:1012500002302000BE003E08A000A1013D088831F8
:10126000D32089310130AD000030AE003D08973108
:10127000462789313D088531F025893120005808FD
:1012800057044005031D4C29C030A0000630A100C2
:101290003D089131862189313D0891317221080044
:1012A00021005B03031D8829DB010C08F60076088A
:1012B0002000E40021000D08F60076082000E3007D
:1012C00021000E08F60076082000E200FD30F6004E
:1012D0007608E405C130F6007608E20561085E0490
:1012E000F6007608E40460085D04F6007608E3047E
:1012F0005F085C04F6007608E204640821008C00B4
:101300002000630821008D002000620821008E006B
:101310000130F6007608DD0704305D060319DD01B3
:101320005D085C06031D0800440845040319080015
:1013300045088A0044080A0089310800AF000130DE
:10134000AD002F0AA429AD35890BA3292D08AE00C5
:101350002E08F4002100510874050319080020002C
:101360005B0874050319C3292F35AC3E860087013D
:101370002F356C3E84008501403F80070131413F9D
:10138000803D3F31D5292F35AC3E86008701403F57
:10139000AD00413FAE002F356C3E860087012D0821
:1013A000810241312E08813B7F312F356C3EA600F2
:1013B0000030A7002F08AD00AE01AD35AE0D5630A0
:1013C0002D07840098302E3D8500003FA800013F86
:1013D000A90088315E200800A3002400951A0800A7
:1013E00020002308A000A101A035A10DA035A10D6A
:1013F0005B30200784009830213D850000082400E0
:10140000940020002308A000A101A035A10DA03563
:10141000A10D5A30200784009830213D8500000836
:1014200024009500960120002308A000A101A0350A
:10143000A10DA035A10D5C30200784009830213D1E
:10144000850000082400920020002308A000A101CC
:10145000A035A10DA035A10D5D3020078400983086
:10146000213D85000008A200A20EA20DA20D2100C0
:101470000D0820002206BF39220621008D0024001D
:10148000951608009431FD248A31803102208A317A
:10149000F930A0000330A10091316A218A318B1705
:1014A0000B17003093318C238A31013093318C2318
:1014B0008A312000A001A00A00309531B7258A3179
:1014C0005030B0000030B1000030923155228A31E6
:1014D0002000A00100309531E9258A31A001293092
:1014E0002200ED006D082000A10000308831D320DB
:1014F0008A31A001A00A01309531B7258A317830B0
:10150000B0000030B1000130923155228A31200004
:10151000A00101309531E9258A31A001293022004E
:10152000ED006D082000A10001308831D3208A3100
:101530000030913172218A310130913172218A312A
:1015400000308931EC218A31943199248A31A42ADE
:101550000C082000A0002008E40021000D08200055
:10156000A0002008E30021000E082000A0002008B1
:10157000E200FD30A0002008E405C130A0002008F2
:10158000E20561085E04A0002008E40460085D0430
:10159000A0002008E3045F085C04A0002008E20427
:1015A000640821008C002000630821008D002000C9
:1015B000620821008E0022000C082000A0002008F4
:1015C000EA0022000D082000A0002008E900220007
:1015D0000E082000A0002008E800CD30A000200860
:1015E000EA055F30A0002008E905F130A0002008DE
:1015F000E805670821006B042000A0002008EA0429
:10160000660821006A042000A0002008E90465089B
:10161000210069042000A0002008E8046A082200D4
:101620008C002000690822008D002000680822003C
:101630008E0008004C082000C0004008C400F030B4
:10164000C0004008C40521004C082000C00040082C
:10165000C3000F30C0004008C305B0304406031D6E
:10166000332BC4013E2BC0304406031D3A2BC4016A
:10167000C40A3E2BFF30C0004008C4000E304302B5
:1016800003180800440A0319080006304306031D26
:101690005E2B4408C0004008BD004308C100C201E1
:1016A000C135C20D0030410784009830423D8500AD
:1016B000013F8A00003F0A008B3108004408943142
:1016C000E8248B31003A0319782B4308C000C1018C
:1016D000C035C10D0030400784009830413D850081
:1016E000003FA000013FA100440891317C21080087
:1016F0004408C0004008BD004308C100C201C13514
:10170000C20D0030410784009830423D8500013F02
:101710008A00003F0A008B3108000B135918952BE3
:1017200021002C082D040319FC2B21004608200061
:10173000A00020082100ED0020005B1CBC2B701CC9
:10174000B02B711CA82B9A302100CA001230AC2B90
:10175000A9302100CA001230CB00E601E201D42BEF
:10176000711CB72BB8302100CA001230C72BC7300C
:101770002100CA001230C72B711CC32BD6302100A8
:10178000CA001230C72BE5302100CA001230CB004E
:1017900031302000A00020082100E6001630200093
:1017A000A00020082100E20020005A142100660851
:1017B0002000A00020082100E80062082000A0000E
:1017C0002008F3007308353E840098300318013E6A
:1017D00085000008A00020082100E4002D0820005A
:1017E000D60021002C082000D5002100AC01AD015D
:1017F00091313D218B31012CFE302000A0002008CA
:10180000D7050B1708000B13D9180B2C21002E0835
:101810002F040319722C210047082000A000200883
:101820002100EC002000DB1C322CF01C262CF11CCB
:101830001E2CD3302100C8001130222CE0302100B2
:10184000C8001130C900E501E1014A2CF11C2D2C22
:10185000ED302100C80011303D2CFA302100C800C5
:1018600011303D2CF11C392C07302100C8001230FA
:101870003D2C14302100C8001230C9003130200046
:10188000A00020082100E50016302000A00020085C
:101890002100E1002000DA14210065082000A000EA
:1018A00020082100E70061082000A0002008F200C5
:1018B00072081C3E840098300318013E8500000821
:1018C000A00020082100E3002F082000D400210000
:1018D0002E082000D3002100AE01AF0191313D213F
:1018E0008C31772CFD302000A0002008D7050B1785
:1018F00008002100501C982CFE302000CE004E081D
:101900002100D005200821040319982C2108220069
:10191000EB00210020082200EA002100A001A10123
:101920002000BD0122006B088A006A080A008C3181
:101930002100D01CB82CFD302000CE004E08210024
:10194000D005220823040319B82C23082200EB0039
:10195000210022082200EA002100A201A3012000A8
:10196000BD01BD0A22006B088A006A080A008C319A
:101970002100591CD72CFE302000CE004E0821003B
:10198000D905300831040319D72C31082200EB00A7
:10199000210030082200EA002100B001B10120003E
:1019A000BD0122006B088A006A080A008C31210000
:1019B000D91C0800FD302000CE004E082100D905BA
:1019C000320833040319080033082200EB00210019
:1019D00032082200EA002100B201B3012000BD015B
:1019E000BD0A22006B088A006A080A008C310800D0
:1019F000B100B0013108BA3E86008701010830020B
:101A0000031808001730A6002608A00031089331FB
:101A10009D238C31A03E3007A700270886000130A7
:101A200087000103031D802D3008A600A701A635FD
:101A3000A70D3108A800A9012808A0002908A100C5
:101A40002E30A2000030A300963136268C3138307B
:101A5000AA002130AB0020082A07AC0021082B3D4A
:101A6000AD0026082C07860027082D3D870031355C
:101A70006C3E84008501403F0002AE000131413FD1
:101A8000003BAF00AF1F492DAE09AF09AE0A0319E5
:101A9000AF0A2F08803AA60080302602031D522D7F
:101AA00017302E020318802D20003008A600A70151
:101AB000A635A70D3108A800A9012808A00029080B
:101AC000A1002E30A2000030A30096313626383017
:101AD000AA002130AB0020082A07AC0021082B3DCA
:101AE000AD0026082C07860027082D3D87003135DC
:101AF0006C3E84008501403F803F413F813F0800AC
:101B000001302000A6002608B007FA2CA3000130FF
:101B1000A100230A8C2DA135890B8B2D2108A20051
:101B20002208F4002008A1002308C23E8600870195
:101B300021088100FD2D7409A1002108F005740918
:101B4000A1002108D9057409A10021082100CE05B2
:101B500074092000A1002108D8057409A1002108FA
:101B60002100CF0574092000A1002108D705080035
:101B70007408A1002108F0047408A1002108D90408
:101B80007409A10021082100CE0574092000A100DC
:101B90002108D8057409A10021082100CF05740986
:101BA0002000A1002108D70508007408A100210821
:101BB000F0047409A1002108D9057408A1002108C6
:101BC0002100CE0408007408A1002108F004740963
:101BD000A1002108D9057408A1002108D804080033
:101BE0007409A1002108F0057409A1002108D90594
:101BF0007408A1002108D70408002008A100A20150
:101C00002208003A0319052E192E2108003A03195B
:101C10009B2D013A0319B82D033A0319D52D013A2A
:101C20000319E32D073A0319F02D013A0319B82DD2
:101C3000192E0800AF002100CD0120002F35A83E4D
:101C4000860087010030C03FC13F2F08B83E8600A4
:101C5000870181012F08B63E8600870181012F0888
:101C6000B43E8600870181012F08513E860087011E
:101C700081012F084F3E8600870181012F35A43E48
:101C8000860087010030C03FC13F2F08BE3E86005E
:101C900087018101AE012E08A600A701A635A70D78
:101CA0002F08A800A9012808A0002908A1002E30AB
:101CB000A2000030A300963136268E319430AA005F
:101CC0002130AB0020082A07AC0021082B3DAD00D5
:101CD00026082C07860027082D3D87000030C03FCE
:101CE000C13F1730A6002608A0002F0893319D237E
:101CF0008E312E3E2E07A700270886000130870070
:101D000081010130A6002608AE0717302E02031C01
:101D10004B2E2F08A600A7012608A0002708A10027
:101D20002E30A2000030A300963136268E3194303A
:101D3000A8002130A90020082807AA002108293D71
:101D4000AB002F35243E8600013087002A08C03FB3
:101D50002B08C13F1730A6002608A0002F0893319A
:101D60009D232E3EA7002F08BC3E86008701270832
:101D700081000800B80038355C3E860001308700DD
:101D8000403FAD00413FAE0038356C3E86008701D4
:101D90002D08810241312E08813B7F3138356C3E60
:101DA000A6000030A7003808AD00AE01AD35AE0D7D
:101DB00056302D07840098302E3D8500003FA80046
:101DC000013FA90088315E208E31B7013808BE3E40
:101DD00086008701010837020318080038355C3E89
:101DE000860001308700403FAD00413FAE0037081C
:101DF000AF00B001AF35B00D3808B100B201310805
:101E0000A0003208A1002E30A2000030A3009631BD
:101E100036268E319430B3002130B40020083307C9
:101E2000B5002108343DB6002F083507860030087C
:101E3000363D87002D08810241312E08813B7F31DC
:101E40003708AD00AE01AD35AE0D3808AF00B001BA
:101E50002F08A0003008A1002E30A2000030A300FF
:101E6000963136268E319430B1002130B2002008F0
:101E70003107B3002108323DB4002D083307A60016
:101E80002E08343DA7003808B500B601B535B60DAB
:101E90005630350784009830363D8500003FA80055
:101EA000013FA90088315E208E310130AD002D0840
:101EB000B707E62EB800B7011730AD002D08A00017
:101EC000380893319D238F312E3E3707AE002E0800
:101ED0008600013087000108AF00B0012F08B5006F
:101EE0003008B6000130AD002D08B70702303506C6
:101EF0003604031D5C2F1730AD002D08A0003808F4
:101F000093319D238F312E3E3707AE002E08860079
:101F1000013087000108AF00B0012F08B50030087C
:101F2000B600350336040319A32F0130AD002D0888
:101F3000B7073808BE3E860087013708010203183C
:101F40007B2FB7017B2F3708AD00AE01AD35AE0D4D
:101F50003808AF00B0012F08A0003008A1002E30D3
:101F6000A2000030A300963136268F319430B100A4
:101F70002130B20020083107B3002108323DB400FF
:101F80002D08330786002E08343D870038355C3E27
:101F9000840001308500403F803F413F813F380849
:101FA000AD00AE01AD35AE0D4E302D07840098303A
:101FB0002E3D8500003FAF00013FB00038355C3E4C
:101FC0008600013087002F08810741313008813DAC
:101FD0007F3138355C3EA6000130A7003808AD00DF
:101FE000AE01AD35AE0D56302D07840098302E3D34
:101FF0008500003FA800013FA90088315E2008004D
:10226E0008000800080008001C11080020001C15BA
:10227E00080020001C1108002400110808009731E6
:10228E00B027080095314025080091109131A52105
:10229E000800163021009700080020003D089431F8
:1022AE001924080020003D089431072408008030CE
:1022BE00220098001F30990008007A302100990002
:1022CE0022009601080021082200E90020002008C3
:1022DE002200E8000800A1002108031D79298B3196
:1022EE008D2308008C3103240800A2002235B03E55
:1022FE00860087012008C03F2108C13F0800A200C8
:10230E002235A03E860087012008C03F2108C13F2C
:10231E0008002400940114309500920121000D173D
:10232E0024009512080022006408650403190800B1
:10233E0065088A0064080A009131080022006808C6
:10234E0069040319080069088A0068080A009131B7
:10235E000800943022009100200092129430220046
:10236E009300200012130800111022006708F600D7
:10237E006608F50092318B22913191319A21080035
:10238E006400800101310130FE020030FF3B7F0806
:10239E007E0403190034C829EB012030F5007508BE
:1023AE00EA00E901F530C8001330C900D601D60A9B
:1023BE000800EB018030F5007508EA00E901E33012
:1023CE00C8001330C900D601D60A0800EB01203030
:1023DE00F5007508EA00E9012E30C8001230C90078
:1023EE00D601D60A0800EB018030F5007508EA0028
:1023FE00E9012130C8001230C900D601D60A080002
:10240E00EB01EA010430F5007508E9004830C80018
:10241E001230C900D601D60A0800EB01EA010830D5
:10242E00F5007508E9003B30C8001230C900D6012E
:10243E00D60A0800EB01EA010430F5007508E90040
:10244E00AC30C8001430C900D601D60A0800EB0122
:10245E00EA010830F5007508E900C030C8001430F4
:10246E00C900D601D60A0800EB012030F500750828
:10247E00EA00E9016F30C8001230C900D601D60A51
:10248E000800EB018030F5007508EA00E9017D30A7
:10249E00C8001230C900D601D60A0800B200323583
:1024AE00AC3E860087013008C03F3108C13F32087C
:1024BE0089319E2108001430220091009030920044
:1024CE0014309300903094002000921212130800E2
:1024DE00EB01EA01E9010230F5007508F10607305B
:1024EE00C8001230C900D601D60A0800EB01EA0175
:1024FE00E9010230F5007508F1061430C8001230FB
:10250E00C900D601D60A08002000181D952A1810F9
:10251E00760897007508960018140800760897003C
:10252E007508960008002030F50075082000E700B9
:10253E00E601E501D1302100CA001330CB00D601EF
:10254E00D60A08001030F50075082000E700E601F5
:10255E00E501BF302100CA001330CB00D601D60AE8
:10256E0008002030F50075082000E700E601E501BF
:10257E0003302100CA001330CB00D601D60A080062
:10258E001030F50075082000E700E601E501F43093
:10259E002100CA001230CB00D601D60A0800023044
:1025AE00F50075082000E700E601E5012130210065
:1025BE00CA001330CB00D601D60A08002000E7016E
:1025CE00E6010230F5007508E50012302100CA0060
:1025DE001330CB00D601D60A08000230F50075087C
:1025EE002000E700E601E50112302100CA00153097
:1025FE00CB00D601D60A08002000E701E601023022
:10260E00F5007508E50029302100CA001530CB0011
:10261E00D601D60A08002030F50075082000E70024
:10262E00E601E5016C302100CA001330CB00D60163
:10263E00D60A08001030F50075082000E700E60104
:10264E00E5017C302100CA001330CB00D601D60A3A
:10265E0008002000E101E0010230F5007508DF00FE
:10266E0057302100CA001530CB00D501D50A08001D
:10267E000230F50075082000E100E001DF016F3047
:10268E002100CA001530CB00D501D50A0800200064
:10269E00DE01DD010830F5007508DC008730210011
:1026AE00C8001530C900D501D50A08002000DE018A
:1026BE00DD010430F5007508DC009F302100C800F4
:1026CE001530C900D501D50A08002000E701E60142
:1026DE00E5010130F5007508F106D6302100CA007B
:1026EE001230CB00D601D60A08002000E701E60121
:1026FE00E5010130F5007508F106E5302100CA004C
:10270E001230CB00D601D60A08002000A100210805
:10271E00031D972B5B30A00020082100ED00080060
:10272E005B30A00020082100EC000800A300A201ED
:10273E00231CA52B2008A1002108A2070310A00D21
:10274E000310A30C2308031D9F2B22080800A200D0
:10275E002208A0002008EB000130A000220AB82BAE
:10276E00A035890BB72B2008A1002108F400080022
:10277E002000E701E601E501E101E001DF01303073
:10278E002100CA001330CB00D601D60AD501D50AD6
:10279E00541408002000E701E601E501E101E00123
:1027AE00DF013F302100CA001330CB00D601D60A1C
:1027BE00D501D50A54140800EB01EA01E901200005
:1027CE00DE01DD01DC014E302100C8001330C900EE
:1027DE00D601D60AD501D50AD4140800EB01EA01B8
:1027EE00E9012000DE01DD01DC015D302100C800C1
:1027FE001330C900D601D60AD501D50AD414080063
:10280E00A2000130A000220A0D2CA035890B0C2C41
:10281E002008A1002108F4007409A000200821005E
:10282E00E0050800A2000130A000220A1F2CA035EE
:10283E00890B1E2C2008A1002108F4007408A000AA
:10284E0020082100E0040800A2000130A000220AA6
:10285E00312CA035890B302C2008A1002108F40062
:10286E007408A00020082100D8040800A20001303E
:10287E00A000220A432CA035890B422C2008A1006F
:10288E002108F4007409A00020082100D1050800D9
:10289E00A2000130A000220A552CA035890B542C21
:1028AE002008A1002108F4007408A00020082100CF
:1028BE00D1040800793020009B009A01911021006C
:1028CE00911438302000A0001130A10091316A21FE
:1028DE00053020009C000800F5007508031D7D2CB6
:1028EE0014302200910090309200822C143022007D
:1028FE009300903094002000921212130800BC0036
:10290E003C088531F02594312000A0012930BB0010
:10291E003B08A1003C088831D32094313C0891310A
:10292E00722108002000911DA82C91119131432194
:10293E0094312200EC006C082100CC008B311A235C
:10294E0094318C3179249431992CEB01EA01E9010F
:10295E000230F5007508F106F01CB92CD330C80012
:10296E001130BC2CED30C8001130C900D601D60A8A
:10297E000800EB01EA01E9010230F5007508F106E5
:10298E00F01CCD2CE030C8001130D02CFA30C8002D
:10299E001130C900D601D60A08002000E101E0017D
:1029AE00DF01DE01DD01DC0198302100C4000830BA
:1029BE00C500DC010330F5007508DA04DB01DB0A23
:1029CE000800A200A3010130A000220AEF2CA035BE
:1029DE00890BEE2C2008A1002108F4005A0874057A
:1029EE000319FB2CA301A30A23080800913190219F
:1029FE0094319531D02594319131642194319131B6
:102A0E005021943191315E2194319431612494316D
:102A1E0096311C2608002000E701E601E501013091
:102A2E00F5007508F106701C212D9A302100CA00A0
:102A3E001230252DB8302100CA001230CB00D6013D
:102A4E00D60A08002000E701E601E5010130F50095
:102A5E007508F106701C382DA9302100CA001230FD
:102A6E003C2DC7302100CA001230CB00D601D60A49
:102A7E0008009131402195319110923162229531A9
:102A8E002200AC01AD012100DF019631A526953162
:102A9E00F9302000A0000330A10091316A21080016
:102AAE002000E101E001DF0116307306031D662DE3
:102ABE00C7302100CA001230CB0053146B2D3030BA
:102ACE002100CA001330CB00D501D50A52140800DC
:102ADE002000E101E001DF0116307306031D7E2D9B
:102AEE00B8302100CA001230CB005314832D3F3072
:102AFE002100CA001330CB00D501D50A52140800AC
:102B0E002000DE01DD01DC0116307206031D962D5C
:102B1E00FA302100C8001130C900D3149B2D4E305D
:102B2E002100C8001330C900D501D50AD2140800FF
:102B3E002000DE01DD01DC0116307206031DAE2D14
:102B4E00ED302100C8001130C900D314B32D5D3013
:102B5E002100C8001330C900D501D50AD2140800CF
:102B6E00A3000130A100230ABD2DA135890BBC2D78
:102B7E002108A2002208F4002003031DCB2D7408A7
:102B8E00A1002108DB0408007409A1002108DB055F
:102B9E00080022008C018D018E01093021008C006D
:102BAE0050308D0060308E000F3023008E008D016E
:102BBE0003308C0024008D018C012100951722001A
:102BCE009D010800A3000130A100230AEF2DA135BD
:102BDE00890BEE2D2108A2002208F400200803190B
:102BEE00FD2D7408A1002108F00408007409A1004D
:102BFE002108F0050800F6007608031D112E2000AE
:102C0E00921E0E2E0130F50075082100C00720001F
:102C1E00921208002000121F192E0130F5007508BF
:102C2E002100C10720001213080099018630970079
:102C3E00E8309600111017082200E7002000160851
:102C4E002200E6002100111437302000A0001130C0
:102C5E00A10088310120C130200098000800A40195
:102C6E00A501201C3E2E2208A4072308A53D0130F5
:102C7E00A235A30D890B3F2E0130A136A00C890B76
:102C8E00442E20082104031D382E2508A1002408F7
:102C9E00A0000800F5007508031D612E9430220077
:102CAE009100711C5C2E90305D2E913092002000B0
:102CBE0092120800943022009300F11C682E92307C
:102CCE00692E933094002000121308000330210067
:102CDE005106031D080022000E1406302000BE000F
:102CEE003030890B782EBE0B782E000022000E108D
:102CFE0006302000BE003030890B832EBE0B832E93
:102D0E000000080020003D089431E8249631003A76
:102D1E0003199E2E3D0894312B249631103020003D
:102D2E00A0000930A1003D0891317C2108003D082A
:102D3E00BE003E08BD008931102108002000E101CF
:102D4E00E0012030A1002108DF00DE01DD0110309E
:102D5E00A1002108DC00E701E601E5012100EB01FD
:102D6E00EA01E9018A31A822FB302000A1002108E6
:102D7E0022008C050800B0003035203E8600013060
:102D8E0087000030C03FC13F30356C3E8600870162
:102D9E000030C03FC13F30088E311A2696315D306B
:102DAE00A0000030A1003008913186219631300804
:102DBE009131722108002000A0013D088D31862539
:102DCE00963101302000AD000030AE003D08973145
:102DDE00462796313D088531F02596310230200088
:102DEE00BE003E08A000A1013D088831D3209631D7
:102DFE003D089131722108002000A0013D088D315F
:102E0E0086259731FF302000AD00FF30AE003D0823
:102E1E009731462797313D088531F025973102309D
:102E2E002000BE003E08A000A1013D088831D3203D
:102E3E0097313D089131722108002000A0013D0814
:102E4E008D31862597312000A0013D089531B7259B
:102E5E0097310130B0000030B1003D08923155225B
:102E6E00973102302000BE003E08A000A1013D08AF
:102E7E008831D32097313D08913172210800B1007D
:102E8E003135603E8600013087002D0881074131C3
:102E9E002E08813D7F313135603EA6000130A700FE
:102EAE003108AF00B001AF35B00D56302F0784009A
:102EBE009830303D8500003FA800013FA9008831C1
:102ECE005E2008002000A0013D088D318625973137
:102EDE002000A001A00A3D089531B7259731013099
:102EEE00B0000030B1003D089231552297310230CA
:102EFE002000BE003E08A000A1013D088831D3206D
:102F0E0097313D089131722108002000E101E00166
:102F1E002030A1002108DF00DE01DD011030A1000C
:102F2E002108DC001030A1002108E700E601E501D0
:102F3E002100EB0180302000A10021082100EA00D1
:102F4E00E9018A31A8220C150530AC002030AD0005
:102F5E00080050302000A0000930A10091316A21F4
:102F6E009731200091102100DE012000E101E001E7
:102F7E00DF01DE01DD01DC012100DB01DB0A913125
:102F8E00B02197312100DD01DC01DC0AD430C40010
:102F9E001430C50097318C27973191313D210800AF
:102FAE0020003D0894313D2497312000A001A00A55
:102FBE003D088D31862597312000A001A00A3D08DD
:102FCE009531B72597310030B000B1003D089231F0
:102FDE00552297312000A001A00A8830BE003E087D
:102FEE00A1003D088831D32097313D089631C22685
:102FFE0008003934113469341734243417343A3410
:10300E00113400340834D734173489341634E2348A
:10301E0016340334173446341134493411345434CD
:10302E0011345934113433340834013406340A342B
:10303E000B340E340F3412341334163417341A344E
:10304E001B341E341F3422342334263427342A34BE
:10305E002B342E342F343234383448340134063481
:10306E000A340B340E340F3412341334163417342E
:10307E001A341B341E341F3422342334263427349E
:10308E002A342B342E342F34323438344834E83446
:10309E00FF34F034FF3438340434383404346834B4
:0E30AE00013468340134143400340034013429
:020000040001F9
:04000E00E43FFF1FAD
:00000001FF
